{
  "contractName": "EtherTransfer",
  "abi": [
    {
      "anonymous": false,
      "inputs": [
        {
          "indexed": true,
          "internalType": "address",
          "name": "from",
          "type": "address"
        },
        {
          "indexed": true,
          "internalType": "address",
          "name": "to",
          "type": "address"
        },
        {
          "indexed": false,
          "internalType": "uint256",
          "name": "amount",
          "type": "uint256"
        },
        {
          "indexed": false,
          "internalType": "bool",
          "name": "success",
          "type": "bool"
        }
      ],
      "name": "Transfer",
      "type": "event"
    },
    {
      "stateMutability": "payable",
      "type": "receive",
      "payable": true
    },
    {
      "inputs": [
        {
          "internalType": "address payable",
          "name": "_to",
          "type": "address"
        },
        {
          "internalType": "uint256",
          "name": "_amount",
          "type": "uint256"
        }
      ],
      "name": "transferEther",
      "outputs": [],
      "stateMutability": "payable",
      "type": "function",
      "payable": true
    }
  ],
  "bytecode": "0x608060405234801561001057600080fd5b5061022a806100206000396000f3fe6080604052600436106100225760003560e01c806305b1137b1461006b57600080fd5b36610066576040805134815260016020820152309133917ff431703d7399230d223d254d7e8479fcd3149952c18616d3c9eb716c6ef5d672910160405180910390a3005b600080fd5b61007e6100793660046101bc565b610080565b005b803410156100d55760405162461bcd60e51b815260206004820152601860248201527f496e73756666696369656e742045746865722073656e742e000000000000000060448201526064015b60405180910390fd5b6000826001600160a01b03168260405160006040518083038185875af1925050503d8060008114610122576040519150601f19603f3d011682016040523d82523d6000602084013e610127565b606091505b50509050806101705760405162461bcd60e51b81526020600482015260156024820152742330b4b632b2103a379039b2b7321022ba3432b91760591b60448201526064016100cc565b6040805183815282151560208201526001600160a01b0385169133917ff431703d7399230d223d254d7e8479fcd3149952c18616d3c9eb716c6ef5d672910160405180910390a3505050565b600080604083850312156101cf57600080fd5b82356001600160a01b03811681146101e657600080fd5b94602093909301359350505056fea26469706673582212205b464edb6a96dcf6a66896992cf6e51ab7bb17886f8e428fc4b30d602865738464736f6c634300080d0033",
  "immutableReferences": {},
  "source": "// SPDX-License-Identifier: MIT\npragma solidity >=0.4.22 <0.9.0;\n\ncontract EtherTransfer {\n    event Transfer(address indexed from, address indexed to, uint amount, bool success);\n\n    // Function to receive Ether and perform transfer\n    function transferEther(address payable _to, uint _amount) public payable {\n        // Check if the transaction is possible\n        require(msg.value >= _amount, \"Insufficient Ether sent.\");\n\n        // Perform the transfer\n        (bool success, ) = _to.call{value: _amount}(\"\");\n        require(success, \"Failed to send Ether.\");\n\n        // Emit an event for successful transfer\n        emit Transfer(msg.sender, _to, _amount, success);\n    }\n\n    // Fallback function to accept incoming Ether\n    receive() external payable {\n        emit Transfer(msg.sender, address(this), msg.value, true);\n    }\n}",
  "sourcePath": "C:\\Users\\usman\\Desktop\\supply-chain-blockchain\\contracts\\contracts\\EtherTransfer.sol",
  "compiler": {
    "name": "solc",
    "version": "0.8.13+commit.abaa5c0e.Emscripten.clang"
  },
  "schemaVersion": "3.4.16",
  "updatedAt": "2024-11-27T11:31:47.400Z",
  "networkType": "ethereum",
  "devdoc": {
    "kind": "dev",
    "methods": {},
    "version": 1
  },
  "userdoc": {
    "kind": "user",
    "methods": {},
    "version": 1
  }
}